:020000040000FA
:100000008231D42AFF3FFF3F80312000911EF52826
:1000100091123B08223A031DF52822006E08BA3ED1
:100020008600013087002300190881002200EE0AB3
:10003000ED01E72823003A08453A0319F528220084
:10004000EE01F52823003B084C3A1D2822004530DC
:10005000EE012300A6004C30A7006230A801A900E1
:1000600006302200EF00A0310E208031F52822005A
:100070004530EE012300A6004C30A700A630A801B1
:10008000A80A2F282200EE012100D308031DF5281D
:1000900045302300A0004C30A1003C08A2003C08E1
:1000A0002100D30023003D08A3003D082100D20019
:1000B0002200C801C80AF5282200EE012100D30859
:1000C000031DF52822000330B2012100D3004008AF
:1000D0002300C000C1013D08C0070318C10A003059
:1000E0004102F23003194002400803180E3E22007C
:1000F000EB00EA016B1C7F28B201B20AEA17EB366B
:10010000A03100208031F5282200EE01C801210035
:10011000D30123003D0B80282200B501B50AF52844
:100120002200EE012100D308031DF52845302300ED
:10013000A3004C30A4003C08A5003C082100D300DB
:1001400023003D08A600552822004530EE0123007B
:10015000A1004C30A2000830A300A40120003908FF
:100160002300A500200038082300A6002000350841
:100170002300A700200036082300A800200037082D
:100180002300A9002200EF01EF0A332823003C08D6
:10019000003A03192628013A03193728023A0319AD
:1001A0005C28073A03198428013A03199028033A76
:1001B00003199028013A031990280F3A0319A4282B
:1001C000F83A03194228013A03194228F5286E0823
:1001D000013A03191A28033A03192228013A03198C
:1001E000F528073A0319C6281F282000111E2829C0
:1001F0002100111E28290A3022006F02031C1F292A
:100200000B306F02031C1C2921005308033A031D05
:1002100018292200B208031D142947306A02031C62
:1002200016292100D3011829C7300E29C801C80A90
:100230008231FB2280312C292200EF0A2C296F0801
:10024000A03E860001308700010823009A001C2987
:100250002000111E2C2911120B198B1E37290B118E
:10026000063020009500A831A22080313A290B1DCC
:100270003A290B112000111C7F291110C03097075B
:100280002300C701C70A21003C0B4829BC01602993
:10029000BC01BC0A2300C801C80ACC0A21003D08E1
:1002A000003A003003190130BD002200280803196C
:1002B0005E29A80B5E29BF313B2780312200E50A69
:1002C0002200330803196829B30B682920008E1116
:1002D0002100480803197F292200C00A400842066D
:1002E000031D7F29C001C501C50AC101903100204D
:1002F0008031C308031D7F29A831D02080318B189D
:100300000B1ED12A8B1020000D180900B401A0315A
:100310004520803123303402031CCF2AB401A031A0
:1003200045208031A0314520803146303402031C05
:10033000CF2AB401A03145208031A0314520803141
:10034000A0314520803169303402031CCF2ADF30D0
:1003500034020318CF2AB401A03145208031A031E6
:1003600045208031A0314520803169303402031CA2
:10037000CF2ADF3034020318CF2A2300CF011930EF
:100380004F020318CF2A2000B401A031452080314C
:10039000A03145208031463034020318D52906307B
:1003A0003402031CD5290D18D8292300CF0ABF29F0
:1003B000B401A0314520803124303402031CF029DF
:1003C000B401A0314520803124303402031CF029CF
:1003D000B401A03145208031243034020318CF2AE3
:1003E000FF30B400B408031D0D1CF929B40BF22929
:1003F000CF2AA031142080312300AA002100B9089F
:10040000031D082A23002A0822006806031DCF2A9C
:10041000A031142080312300AB002100B908031D56
:10042000172A23002B0821006106031DCF2AA031C3
:10043000142080312300AC002100B908031D262AB6
:1004400023002C0821006206031DCF2AA0311420AE
:1004500080312300AD00A031142080312300AE0094
:10046000A031142080312300AF00A031142080314E
:100470002300B000A031142080312300B1002A08ED
:100480002000B40023002B082000B40723002C0810
:100490002000B40723002D082000B40723002E08F5
:1004A0002000B40723002F082000B40723003008E1
:1004B0002000B4072300310820003406031DCF2A92
:1004C00023002A0822006806031D722A23002B0835
:1004D00021006106031D722A23002C0821006206F8
:1004E0000319752A2300AD1FCF2A23002E082200EE
:1004F000B90023002F082200B80023003008220092
:10050000B700A831CA2080313C30C4002100C801A6
:10051000C80AC7012200BF012300D001D00A200071
:1005200016082200A400200017082200A500C030F1
:1005300025020030031924020318A22A3C30C0010E
:10054000A507BD2AC3302502D73003192402C001F4
:100550000318B02A1430C00AA4003E30A500BD2AFA
:100560002930A4073C30A53DBD2A1830BA2A2430D2
:10057000BA2A0C302200C200CF2A23002D083039BD
:10058000FC00FD017D08003A0319C72AB92A7C083E
:10059000103A0319B52A303A0319B72AB92A8B1031
:1005A00009008B1C0900CF2A8801B031C42800340F
:1005B000FA346034D634F4346C34BC34BE34E834A9
:1005C000FE34FC34EE343E349A3476349E348E3429
:1005D000003404341A3406347A3426341E347F341A
:1005E000DD341F347E34BF343E347F34DF345E3438
:1005F0009F341E345F342100111223001D160800A1
:10060000AF31252FAF312A2FAF312F2FAF31342FFC
:10061000AF31392FAF313E2FAF31432FAF31482F9C
:10062000AF314D2FAF31522FAF31572FAF315C2F3C
:10063000AF31612FAF31662FAF316B2FAF31702FDC
:10064000AF31752FAF317A2FAF317F2FAF31842F7C
:10065000AF31892FAF318E2FAF31932FAF31982F1C
:10066000AF319D2FAF31A22FAF31A72FAF31AC2FBC
:10067000AF31B12FAF31B62FAF31BB2FAF31C02F5C
:10068000AF31C52FAF31CA2FA331212BA231812A1F
:10069000AF31CF2FAC31D82CAC31DA2CAC31D82CD7
:1006A000AC31E62CAC31D82CAC31E62CAC31D82CAA
:1006B000AC31D82CAC31E62CAC31D82CAC31E62C9A
:1006C000AC31D82CAA31E02AAA31E32AAA31E72A90
:1006D000AA31EE2AAA31F02AAA31F22AAA31F42A42
:1006E000AA31F62AAA31F82AAA31FA2AAA31FC2A12
:1006F0009D318E2D9D31962D9D31AC2D9D31BD2D81
:100700009D31C92D9D31CC2D9D31DC2D9D31E62DA6
:100710009D31262D9D31292D9D312C2D9D312F2D43
:100720009D31322D9D31352D22002E0803199B2B32
:10073000AE0B9B2BAD01210032080319182C2200AF
:10074000AE08031D182C210050082000A300210032
:1007500051082000A20021004F082000B30064309F
:10076000A001A10007302100BA009C312824833168
:10077000AD31EB2583312000C830DA01DB00423097
:10078000DC002308D8002208D7002324833157082F
:10079000DD005808DE005908DF005F2483315A0865
:1007A0002300D50020005B082300D60020005C0851
:1007B0002300D70020008030DA01DB003E30DC006F
:1007C000210021082000D800210020082000D700A7
:1007D000232483315708DD005808DE005908DF0064
:1007E000FB2483315A082300D20020005B08230039
:1007F000D30020005C082300D40055082000CF005F
:10080000230056082000D000230057082000D10004
:10081000230052082000D200230053082000D300F8
:10082000230054082000D400332483310318192CEA
:100830002B2F22000630AD0A2D020318202C5F2D2D
:100840003230AE0008005708CF005808D0008E3074
:10085000D101D200D301C1244F08D7005008D800DD
:100860005108D9000800D11F422C4F08003CCF008E
:100870005008031C500F003CD0005108031C510FBE
:10088000803CD100D41F512C5208003CD2005308A8
:10089000031C530F003CD3005408031C540F803C2E
:1008A000D4008030D106D40654085102031D08003C
:1008B00053085002031D080052084F0208005D084B
:1008C000E0005E08E1005F08E2000310610D620DC8
:1008D000E700E708031D702CDA01DB01DC010800EA
:1008E0005A08E0005B08E1005C08E2000310610DBB
:1008F000620DE800E808031D812CDA01DB01DC0150
:1009000008008930E401E501E6016807E000E7023C
:100910005F08E8005C08E8068030E8051830DE175C
:10092000DF01DB17DC01E300E435E50DE60D5C08D3
:100930005F02031DA12C5B085E02031DA12C5A0857
:100940005D02031CAA2C5A08DD025B08DE3B5C0832
:10095000DF3B6414DD35DE0DDF0DE30B942C640802
:10096000CF006508D0006608D1006708D20068088B
:10097000D300C1244F08DA005008DB005108DC0026
:10098000080052080319C92C510850044F04031DD4
:10099000D12CCF01D001D1010800D20AD136D00C20
:1009A000CF0CFE3051050319DF2CCD2CD20ACF0A13
:1009B0000319D00A0319D10AD136D00CCF0CFF305D
:1009C00051050319E82CD62CD203CF35D00DD10D0B
:1009D000D01FE42C521CD013D2365208D600D501B9
:1009E000D4015408CF045508D0045608D104530844
:1009F000031DD11708005A08E0005B08E1005C08FD
:100A0000E2000310610D620DE300E308031D0C2DED
:100A1000DA01DB01DC0108005D08E0005E08E100AE
:100A20005F08E2000310610D620DE800E808031D95
:100A30001D2DDA01DB01DC01080068087B3EE307BD
:100A40005C08E8005F08E8068030E805FF30DB1747
:100A5000DE17DD05DE050730DF01E401E501E60113
:100A6000E7005A1C362D5D0850278331DC36DB0C3D
:100A7000DA0CDD35DE0DDF0DE70B312D0930E70037
:100A80005A1C452D5D0850278331DC36DB0CDA0C0F
:100A9000E636E50CE40CE70B402D6408CF00650852
:100AA000D0006608D1006308D2006808D300C124D2
:100AB0004F08DA005008DB005108DC000800C701CD
:100AC000C70AB3010800832D9F3125270318E501CC
:100AD0002000BA01080000309631822683310426B6
:100AE00083311C30802D00309631822683319F3136
:100AF0000E2783319931D52183319E31CF26833121
:100B00002000BB00682D20003A08013A0319642D2B
:100B1000053A03196B2D033A0319732D682D08004C
:100B2000F42D21000430C308031DBB2D4602031819
:100B3000BA2D0330E50A6502031CB72DE501B72D78
:100B4000460203180800B208031DAC2DFF30B200A6
:100B50002200AE01AD01AD2DB20109302000D5005B
:100B6000210032082000D60088308C31B3242000C8
:100B7000BA010800352E4602031C0800BA2D2100D8
:100B80000430C3080319A02D4602031C08000030DE
:100B900096318226833117302000BB003608C6000C
:100BA0003708C500B72D21000430C308031DDE2D12
:100BB00046020318E52D0430B901E32D4602031C5B
:100BC000E52DB901B90A2000BA013C3044262300C2
:100BD000CE0108000030963182268331042683310D
:100BE0001C302000BB00B72D20003A08013A031941
:100BF000912D043A0319BF2D033A0319D32D013A5D
:100C00000319EA2DB72D080021004827A20A03196D
:100C1000A30A9B315A2383319F31DB278331482735
:100C20009B315A2383313C279C31282483319E31C8
:100C30009B268331AE312226833123082100E70031
:100C4000200022082100E800200033082100E600EF
:100C50009E31A7268331AE31222683319E31C326B1
:100C600083319B3170238331302F003096318226BF
:100C7000210031082000A900210030082000A80030
:100C8000BB01BB0ABA0108002000CF003B08223A92
:100C9000031908004F082200BF00592683312100A4
:100CA000C801C701C70A2200470B0800AE01AD0109
:100CB0002B2F20003B08223A031908002200C5010F
:100CC000C50A20008D140B160800D3010F08D400AC
:100CD000D413D5017F300F05D20054060319D30A6F
:100CE0009630D50A5502031C6A2E79305302031838
:100CF000BD2EBA2E2100C501C50AE02E0230892E74
:100D00000330892E0430892E0530892E0630892E35
:100D100007302100C500E02EBB08031DE02E003087
:100D2000BA01963182268331E43082310A002200F2
:100D3000D400EA3082310A00D500EB3082310A005B
:100D4000D6008E31472683312330B82E093021005A
:100D5000C50006304602031CE02E2000BB08031D20
:100D6000E02E0030BA0196318226833124302000F3
:100D7000BB00E02E2100C501E02E5408133A0319F0
:100D8000E02E093A0319E02E2D3A03198C2E083A69
:100D900003197A2E703A0319A62E103A03197E2EE3
:100DA000303A0319802E183A0319822E0C3A03198F
:100DB000862E063A0319882E033A0319842EBA2E7A
:100DC0002100C508031DE82EC301C601C401182F68
:100DD000C308031DFE2E45082000BA002100C301F0
:100DE000C30A230044080319FA2E14302200AA0073
:100DF00020008C150F302200A800182FC408031DF6
:100E0000182F04304602031C182F20003B0803193A
:100E1000182F21004508023A0319122F4508033AFA
:100E2000031D182FC6012300CA012100C401C40AF2
:100E30002100430B1E2F0A302200AC0020003A088C
:100E4000031908002200470B08002000BA01220005
:100E5000AE01AD012B2F20008E112200C70108002A
:100E600023082100E700200022082100E8002000DC
:100E700033082100E6000800210036082000A10008
:100E8000210037082000A00021003508BA00080022
:100E900023082000A300210022082000A20008004F
:100EA000E4075E08E53D5F08E63D0800C030CB0082
:100EB000210034089D311E25873122004E144E1525
:100EC00021000C303B142200C90420002908D7005F
:100ED0002808D600A53160258731E52F3C0303198A
:100EE000742F440803197D2F20003108D83E823129
:100EF0000A0087312200D3007F2F2200D301200077
:100F00003008D83E82310A002200D40020002F0889
:100F1000D83E82310A002200D50020002E08D83E9B
:100F200082310A0087312200D6008731F52F200058
:100F30003108D83E82310A0087312200D3002100D7
:100F40003C03873103197F2F87314408031D7F2F0E
:100F500087312200D4018731862F20003108D83E06
:100F600082310A0087318731F82782310A008731C0
:100F70002200D40021003C030319862F4408031DDE
:100F8000862F2200D5018D2F20003108D83E8231D6
:100F90000A008731F82782310A002200D40020009D
:100FA0002F08D83E82310A0087312200D500210067
:100FB0003C03873103198D2F87314408031D8D2F82
:100FC00087312200D6018731F52F21003E08013AF2
:100FD0000319AD2F8731033A0319972F8731013A4F
:100FE00003196E2F87318731C42F2100BB140800ED
:100FF0002200D30020003008D83E08000800FF3F40
:10100000FF3F640080010131890B022800349815EC
:101010001C279815B231252288311C278831962744
:101020000030963182268831472688310C15210000
:10103000EE0106306E0203182228E72788312100CE
:10104000EE0A192820000C118E118C142100EE01DB
:1010500008306E0203183128E72788312100EE0A94
:1010600028282000FF308C108C159631822688317C
:10107000472688312100EE010A306E020318452808
:10108000E72788312100EE0A3C2820008C11A1318D
:1010900061218831B03113208831BF31592788311F
:1010A000BF316E278831983101208831B1310B2151
:1010B0008831BF31B3278831A13140218831A13136
:1010C0001F218831A031F72088316625A131052103
:1010D0008831BF3147278831BF3150278831A4314B
:1010E0002E248831B13133218831B03184208831C8
:1010F000A83100208831B031A4208831B231EC22EF
:101100008831A73117278831A731AD278831A7311A
:10111000B6278831A731BF278831A731DA27883130
:10112000B0312E2088312300CD01CD0A22000030BD
:10113000AB0196318226883120000F082100EE0095
:10114000EE136E083F3A031DDB28610E0F39D83EBF
:1011500082310A002200CF00210061080F39D83EF9
:1011600082310A002200D0002100620E0F39D83EE1
:1011700082310A002200D100210062080F39D83ED6
:1011800082310A002200D200EC3082310A00D40001
:10119000DE3082310A00D500DA3082310A0088312F
:1011A000D6008E3147268831862788313F3A031D85
:1011B0002C296400D4286E08773A031D2C2910309E
:1011C0002000D5001330D6008830B3248831113088
:1011D00081278831B3248831123081278831B324A4
:1011E00088311330D5008830D601B32488311430CB
:1011F000D5008830D601B324DA3082310A002200CB
:10120000CF00D83082310A00D000D93082310A00B4
:10121000D100DB3082310A00D200D83082310A009E
:10122000D300D93082310A00D400D83082310A008C
:10123000D500D93082310A00D600DE3082310A0072
:101240008931D7008E314726883186278831773A11
:10125000031D2C2964002529B43123248831BF3192
:1012600083278831B0316420883121009A1B3D29C1
:1012700020008E151C27883135293127883121001F
:101280009A1B472920008E151C2788313F293127BA
:101290003C308E11863144268831003096318226CA
:1012A0008831472688312100EE01640020000E1DA0
:1012B00088292200350B6929B501C601C60A20001C
:1012C0003C30BB018631442688312300CE01F4270F
:1012D000883120003B08223A031998292200C608C9
:1012E000031D98292230C601C60A2000BB00220037
:1012F000EC012100C8012200BF012100C7012B27FA
:101300000030963182268831C501FA278831982924
:10131000F42788312200C60120003B08223A031D31
:1013200098293C30BB018631442688312300CE0108
:1013300020003B08223A031DA0292200CD15A22936
:101340002200CD11230047080319BF29C70122003D
:101350000330ED0A6D02031CAF29ED01EE012100FF
:10136000430BB7290A3046020318B729C60A2200E0
:101370002A080319BF29AA0BBF2920008C112300BA
:1013800048080319192AC80120008C19E6292100F0
:10139000C708031DE629B331352388312200073001
:1013A000AB0A2B02031CE629B1315D2188312300F1
:1013B00036082200A6005A30AB012602031CE4299D
:1013C0002300CD01CD0AE6292300CD0122002C08FF
:1013D000031DAC03210048080319FA292200440820
:1013E0000319FA29C40BFA293C3086314426883186
:1013F0002300CE012100470B0D2A22000530A70A49
:1014000027020318A701BF08031D0C2A2B278831C8
:101410002100C701B9010D2ABF032200470B192A79
:1014200020008E1D152A8E11192A3B08223A031D11
:101430008E15A931B921883120003B08223A0319C1
:10144000252A863165268831262ABA012100440BD7
:10145000422A23000D30CA0A4A02031C422ACA014A
:1014600020003B08033A03193D2A3B08043A0319BC
:101470003D2A210045082000BA000F302200A800B4
:101480001430AA00AF31232788312300C508031D7B
:101490004B2A472688312300C50120008C100C11EF
:1014A0002300500B6A2A2200360803195A2A20000A
:1014B0008C145C2A20000C15B3317F238831A831AD
:1014C0001F208831AD31362588318331942388310E
:1014D0002300D001063022006502031C882AFA305E
:1014E000E5072100480B882AB03100208831BF3140
:1014F000CB2788311430BB0A3B02031C882AB43145
:101500007B248831983116208831A4312E248831EB
:101510001230200036020318912A063036020318D2
:10152000952A2300C401C40A972A2300C4013D3030
:101530004C02031C592B20003B08223A031DA82A09
:1015400022000530EC0A6C02031CA82AB501B50A7A
:10155000C4302300CC072000B70A37083C3A031DEB
:10156000342BB701B60AA431342488312000360860
:10157000183A031D292B2100F230C0034002031C3E
:10158000C32AF130C00008302000D50021004008F7
:101590002000D6008830B32488312100401CD22A94
:1015A0004036EB249A31C8228831B431DA248831AC
:1015B000B601B50A7B27AB315B23883120003508A3
:1015C00021004B020318122B9F314F2788310D3019
:1015D000B501B50AB80A3802031C072B6430B801FC
:1015E000B80AB90A39020318B9013908A631272601
:1015F00088312100D80010302000D5002100580883
:101600002000D6008830B3242300CB01CB0A200071
:101610003808A631272688312100D700B2319C2214
:101620008831B32420003508A631272688312100CF
:10163000D400AD3129258831B32488317B27AB31E3
:101640005B2388312200B108031D292B2300CB0125
:10165000CB0A20003608A631272688312100D50084
:10166000B7317F278831B3243708A6312726883140
:101670002100D6009031B5208831B3248831230071
:10168000C901C90A2100C808031D592BC708031D39
:10169000592B193023004E020318512B1430CE0A57
:1016A000562B2000B708031D592B3C3086314426A9
:1016B00088312300490BE62BC9012200B601DA2B41
:1016C00020002D082B02031D672B2C082A0203186B
:1016D0006F2B2200690BE62BB601B60AE62B2B080E
:1016E0002D02031D752B2A082C020318E62B22005D
:1016F000E908D72B20002D082B06031D812B2C0871
:101700002A06031D8F2B21002B0820002B06031D0A
:101710008D2B21002A0820002A060319E62B2B080E
:10172000372788310318CE2B2B08A9002A08CD2B88
:1017300020002D082B06031D9F2B2C082A06031DB5
:10174000B92B21002B0820002B06031DAB2B2100F9
:101750002A0820002A06031DB92B21002D0820008D
:101760002B06031DB72B21002C0820002A06031985
:10177000E62B2B08372788310318C22B2B08A9002A
:101780002A08A8002D082902031DC82B2C082802AE
:101790000318CE2B2D08A9002C08A8002908220028
:1017A0002106031DD72B210028082200200603193B
:1017B0006C2BE62B21006308003A0319E62B013A53
:1017C0000319602B033A03197A2B982B23004B0B38
:1017D000ED2BCB019A313E2288312200A808031D4F
:1017E00055292000BB08031D55292200C508031DEB
:1017F00055292100C308031D55292200AC08031DEB
:10180000552920000C1D8C1855296300000055290E
:10181000210063082000450603190800450821003F
:10182000E30023000E30C901C90A2000D5002100C1
:1018300063082000D6008830B32488314508003A78
:1018400003192A2C013A03192C2C033A0319442CAE
:101850006D2C0800A2312B2A96305F278831B324E3
:1018600097315F278831B3240C30BE001630BF019A
:10187000BC00BD01B031492088316D278831B324C7
:10188000973175278831B32C96305F278831B32480
:1018900097315F278831B3240830BE001030BF0174
:1018A000BC00BD01B031492088316D278831B32497
:1018B000973175278831B32488311030C100163034
:1018C0008C27B731C427883175278831582788314C
:1018D000B324883166278831B32C96305F2788314E
:1018E000B32497315F278831B3240830BE000C3011
:1018F000BF01BC00BD01B031492088316D2788315E
:10190000B324973175278831B32488310C30C10056
:1019100012308C27B731C427883175278831582772
:101920008831B324883166278831B3241230C4004B
:1019300021001630DB012000C3002100DA01B7319D
:10194000E227883132302100AC006630AD01200042
:10195000D50021002D082000D6008830B32497310F
:1019600064278831B32CD7008B1310278831A0301F
:101970002C2688312326883157082C2688312326A7
:10198000883155082C2688312326883156082C2684
:10199000883123268831DC2788318B175508D200FF
:1019A0005708FD2588315508D2005708FD25883194
:1019B0005508D2005708FD2588315508D200570830
:1019C000FD2588315508D2005708FD258831550876
:1019D000D2005708FD2D2000D6008B131027883128
:1019E000A0302C2688312326883156082C268831B1
:1019F0002326883100302C26883123268831D501D2
:101A0000640000302C268831232688318030D50AA6
:101A10005502031C002DDC27883191278831FD25D4
:101A200088317F30D2005608FD2588317F30D200C2
:101A30005608FD2588317F30D2005608FD258831B3
:101A40007F30D2005608FD2588317F30D2005608FD
:101A5000FD2588318B1310278831A0302C26883142
:101A60002326883156082C26883123268831803059
:101A70002C26883123268831D501640000302C269D
:101A80008831232688318030D50A5502031C3D2D2C
:101A9000DC27883191278831FD2588317F30D200BD
:101AA0005608FD2588317F30D2005608FD25883143
:101AB0007F30D2005608FD2588317F30D20056088D
:101AC000FD2588317F30D2005608FD2D0E302000D4
:101AD000D2008830FD2588312100E3000430630204
:101AE000031C772DA2311F228831A2312B2A6030AE
:101AF0002000D2008830FD258831AB006130D20053
:101B00008830FD258831AA006230D2008830FD255A
:101B10008831AD006330D2008830FD258831AC00BB
:101B20006430D2008830FD2588312100AB0065305B
:101B30002000D2008830FD2588312100AA006630BF
:101B40002000D2008830FD2588312100AD006730AB
:101B50002000D2008830FD2588312100AC0068309B
:101B60002000D2008830FD258831BE006930D200C7
:101B70008830FD258831BF006A30D2008830FD25CD
:101B80008831BC006B30D2008830FD258831BD0023
:101B90006C30D2008830FD258831C1006D30D20014
:101BA0008830FD258831C2006E30D2008830FD2596
:101BB0008831C0006F30D2008830FD258831210087
:101BC000D90070302000D2008830FD258831C40053
:101BD0007130D2008830FD2588312100DB00723061
:101BE0002000D2008830FD258831C3007330D20038
:101BF0008830FD252100DA0008002000D300D40140
:101C00008B1310278831A0302C2688312326883169
:101C100053082C2688312326883152082C268831F7
:101C20002326883110278831A1302C26883123269D
:101C3000BF31E5278831D400903103208831DC277B
:101C40008B17540808008E1621008E1620000E16E1
:101C50001B2788310E12362F2000CF0021008E1254
:101C60002000D0010E121B278831CF1F392E8E166F
:101C70003A2E8E121B2788310E161B27883108300A
:101C80000E12CF35D00A500203180800322E210060
:101C90003B1C4D2E220053144F2E220053102100C6
:101CA000BB1C552E22005414572E22005410210024
:101CB0003B1D5D2E220055145F2E22005510210081
:101CC000BB1D652E22005614672E220056102100DF
:101CD0003B1E6D2E22004F146F2E22004F1021004C
:101CE000BB1E752E22005014772E220050102100AA
:101CF0003B1F7D2E220051147F2E22005110210007
:101D0000BB1F852E22005214872E22005210200065
:101D100003301010CF00A030C12788310630CF002B
:101D20000030C12788310430CF0022004B0E0F391C
:101D3000FB2688310830CF0022005708FB26883167
:101D40000830CF0022005808FB2688310830CF0029
:101D500022004D08FB2688310830CF0022004E08B3
:101D6000FB2688310830CF0022004908FB26883145
:101D70000430CF0022004A08FB2688310830CF000B
:101D800022005308FB2688310830CF002200540877
:101D9000FB2688310830CF0022005508FB26883109
:101DA0000830CF0022005608FB2688310830CF00CB
:101DB00022004C08FB2688310430CF0022004B085B
:101DC000FB2688310830CF0022004F08FB268831DF
:101DD0000830CF0022005008FB2688310830CF00A1
:101DE00022005108FB2688310830CF00220052081B
:101DF000FB26101408002000D000D1014F0851022A
:101E0000031808005018062F0C12072F0C168C12FE
:101E1000D52788318C16D5278831D036D10AFE2EA9
:101E200021008E1220008E160E161B2788318E126E
:101E30001B270E120800362F88302000CF001330E9
:101E4000D0000130CF020030D03B4F0A0319500AB6
:101E500003190800212F20008D102200C5010B124C
:101E600008008D302000980099010800080021002A
:101E7000A90020002A082100A80020002D08210028
:101E80002902031D472F20002C08210028020318D7
:101E9000512F20002D082100A90020002C0821002E
:101EA000A8002B082902031D08002A0828020800A0
:101EB0002000D50021002B082000D6008834AA007D
:101EC0006030AB01D5002B08D60088346530D500D2
:101ED00021002A082000D60088343230AC0062305D
:101EE000AD01D5002D08D600883496302100AA0017
:101EF0006430AB0108003808D5003508D600390831
:101F00000800D5008830D601D60A08007F302000AE
:101F10000F052300D8000800C201C0002100D9012C
:101F200008008B177F30D20056080800A62788319A
:101F30000130B4278831A62788310330B42788318F
:101F4000A62788312830B4278831A62FF430CF0057
:101F50000130D0000130CF020030D03B4F0A0319CE
:101F6000500A03190800AA2FD20003301010CF0026
:101F70008030C12788310930CF005208C1271014A2
:101F80000800D000D1014F08510203180800D01BEF
:101F9000CB2F0C12CC2F0C168C12D52788318C1617
:101FA000D5278831D035D10AC32F1B2788311B276D
:101FB00088311B278831362F21008E1220008E1287
:101FC0001B2788310E161B2788318E16362F0A30B4
:101FD0002000D10064002000D1035108FF3A03190A
:101FE00008001C278831EB2F2100111223009E12BC
:101FF0001D1208002100111223009E161D16080054
:102000000B118B16080021008E1220008E168F31C6
:102010001B2790310E168F311B270E128F31362F52
:10202000242834208C31B3240730BB003C08C60080
:102030003D08C500BA010800CA2ED22E34208C31CA
:10204000B3249031BB011A2820003A08013A031941
:102050001128033A03191C28013A03191D28073ACD
:1020600003191E281A2808004508BF006930D5004A
:102070003F08D6008834602870208C31B32490311A
:102080000430BB00210063082000C5000030822618
:102090002000BA0108000630C50A4502031C482882
:1020A000C50148280630C5034502031C48280530F1
:1020B000C500482870208C31B3249031BB014828DA
:1020C00020003A08013A03193C28033A03194B2827
:1020D000013A03195228073A03195A2848280800D8
:1020E00045082100B40006302000D5002100340846
:1020F0002000D6008834A5284508B700A631272639
:1021000090312100D600B5208C31B3242300193042
:10211000C901C90A2000BB003508C6003808C5003F
:10212000BA010800CA2ED22E4508B700A6312726CC
:1021300090312100D600B5208C31B324903123009A
:10214000C901C90A2000BB01902820003A08013AC1
:1021500003197C28033A03199228013A031993289A
:10216000073A031994289028080014302000D5005D
:10217000210056082000D6008834F4288C31082429
:102180009031D52811302000BB002B08A9002A0867
:10219000A80003302100BE00DB2805302000BB0072
:1021A0003E08C6003F08C500DB2821006308003A4E
:1021B0000319C228CD28003082262000BA01080069
:1021C0000430C50A4502031CDD28C501DD280430A2
:1021D000C5034502031CDD280330C500DD288C3112
:1021E00008249031BB01DD2820003A08013A031988
:1021F000BE28033A0319E028013A0319E728073AF1
:102200000319EF28DD28080048299F3125270318E6
:10221000E5012000BA010800450803190929083022
:10222000C503C6034602031C17290730C6009931AF
:10223000D5219031AA318D229031092907304502EC
:10224000031809290830C50AC60A4602031C1729C3
:10225000C6011729003082262000C5012100690827
:102260002000C60099312621903120003908210034
:10227000C200AA31BC2290312100C10020302000D0
:10228000BB0009290030822690312000BB010929BA
:1022900020003A08013A03190529033A03190C29C9
:1022A000013A03191E29073A03192A29033A031987
:1022B0004229092908009129DC269031B200B20890
:1022C000031D7B294508CC278C31B3249031023083
:1022D00021006302031C742909302000BB0041085F
:1022E000C6004208C5007C29113020002A27903101
:1022F000822690317C297C262000BA010800CA2E53
:10230000D22EDC269031B200B208031D8D2945087B
:10231000CC278C31B32490318F297C269031BB019E
:102320007C2920003A08013A03195C29033A031971
:102330007F29013A03198029073A031981297C2949
:102340000800DB290C278C31B3249031A2313D22C7
:1023500090318C31B3249031A42790318226200013
:10236000BA010800A80A0319A90A02302902593043
:1023700003192802031CAF295A30A800A901AF296C
:102380000130A8020030A93B29025A300319280263
:102390000318AF295830A8000230A900AF290C2734
:1023A0008C31B3249031A2313D2290318C31B32451
:1023B0009031BB01AF2920003A08013A0319A22944
:1023C000033A0319B229013A0319C029073A03193C
:1023D000CF29AF2908002B2AFD268C31B324903158
:1023E000A231362290318C31B3249031A427903120
:1023F00082262000BA0108006430A8070318A90A41
:1024000027302902113003192802031CF9296430EE
:10241000A800A901F9296430A8020030A93B27309F
:10242000290211300319280203181A2A290828043E
:10243000031DF9291030A8002730A900F929FD262D
:102440008C31B3249031A231362290318C31B324B7
:102450009031BB01F92920003A08013A0319EC290F
:10246000033A0319FC29013A03190B2A073A031905
:102470001F2AF9290800682A21003E080319422A68
:10248000BE03592A200083278C31B32490315F2763
:102490008C31B3249031210063080319582A20009D
:1024A0002D08A9002C08A8001230FB279031592ACA
:1024B000D3232000BA0108002C2B7F2B83278C31DB
:1024C000B32490315F278C31B3249031BB01592A5A
:1024D00020003A08013A03193C2A033A03195C2AFE
:1024E000013A03195D2A073A03195E2A592A08009E
:1024F000982A21003E0803197F2ABE03892A20005A
:10250000EE268C31B324903164278C31B324903182
:10251000D3232000BA0108002C2B7F2BEE268C3110
:10252000B324903164278C31B3249031BB01892AC4
:1025300020003A08013A0319792A033A03198C2A30
:10254000013A03198D2A073A03198E2A892A0800AD
:10255000D82A21003E080319AF2ABE03C92A200049
:102560007A278C31B324903175278C31B324903184
:10257000023021006302031CC82A2B082000A90096
:1025800021002A082000A8001330FB279031C92A17
:10259000D3232000BA0108002C2B7F2B7A278C3103
:1025A000B324903175278C31B3249031BB01C92AF3
:1025B00020003A08013A0319A92A033A0319CC2A40
:1025C000013A0319CD2A073A0319CE2AC92A08006D
:1025D0001C2B21003E080319EF2ABE030B2B200001
:1025E0001B278C31B32490318F31662790318C3189
:1025F000B3249031033021006302031C0A2B2D0801
:102600002000A90021002C082000A8001430FB277E
:1026100090310B2BD3232000BA0108002C2B7F2BE9
:102620001B278C31B32490318F31662790318C3148
:10263000B3249031BB010B2B20003A08013A031957
:10264000E92A033A03190E2B013A03190F2B073A13
:102650000319102B0B2B08005C2B20000A30B10A49
:102660003102031C682BB101682B20000A30B00A2C
:102670003002031C682BB001682B20000A30AF0A1F
:102680002F02031C682BAF01682B2000AE0AB10893
:10269000031D4F2BB00803192F080319552B0A30BF
:1026A0002E02031C682BAE01682B0A302E02031C7D
:1026B000682BAE01AE0A682B21003E08013A0319CF
:1026C0003D2B033A0319352B013A03192D2B452BCA
:1026D0005327A43164249031E3279031BF2764301D
:1026E000D100D201A43164249031D2279031BF2788
:1026F0000A30D100D201A431642490316B2FB02B69
:1027000020000A30B1033102031CBC2B0930B10098
:10271000BC2B20000A30B0033002031CBC2B093054
:10272000B000BC2B20000A30AF032F02031CBC2BCF
:102730000930AF00BC2B2000AE03B108031DA52B50
:10274000B00803192F080319AC2B0A302E02031C02
:10275000BC2B0930AE00BC2BAE080319A92BA52B4E
:1027600021003E08013A0319922B033A0319892BE1
:10277000013A0319802B9B2B5327A43164249031F9
:10278000E3279031B8276430D100D201A43164240A
:102790009031D2279031B8270A30D100D201A4312C
:1027A000642490316B2F00308226210033082000F2
:1027B000C5001530BB0008002C2C3F084D27903178
:1027C0004108AB27903110269031B200B208031DAA
:1027D000F32B3E084106031DF32B3F084506031D5E
:1027E000F32BB201B20AB208031D042C4508C62718
:1027F0008C31B32490310B30BB004008C60021005F
:1028000059082000C500052C7C26BA010800CA2EF4
:10281000D22E3F084D2790314108AB27903110262A
:102820009031B200B208031D1F2C3E084106031D63
:102830001F2C3F084506031D1F2CB201B20AB20827
:10284000031D282C4508C6278C31B32490312A2C2F
:102850007C269031BB01052C20003A08013A03196F
:10286000DD2B033A0319072C013A0319082C073A08
:102870000319092C052C08008C2C3F084D2790319A
:102880004408AB27903110269031B200B208031DE6
:10289000512C42083C279031D82790311026903196
:1028A000B200B208031D642C45082100DB008C2710
:1028B0008C31B32490310F30BB004308C600210097
:1028C0005A082000C500652C7C26BA010800CA2ED3
:1028D000D22E3F084D2790314408AB279031102667
:1028E0009031B200B208031D7D2C42083C27903184
:1028F000D827903110269031B200B208031D882CE1
:1029000045082100DB008C278C31B32490318A2CC0
:102910007C269031BB01652C20003A08013A03194E
:102920003D2C033A0319672C013A0319682C073A26
:102930000319692C652C08002A2D41084006031D47
:10294000A72C42084506031DA72CB201B20AB20803
:10295000031DB32C3F084D2790314008AB27903121
:1029600010269031B200B208031DBE2C4208CF00E1
:1029700040083327903110269031B200B208031D71
:10298000C92C4208CF0040084427903110269031CE
:10299000B200B208031DE92C45082100D9009C278C
:1029A0008C31B3249031033021006302031CE22CEC
:1029B0000D302000BB004408C60021005B08200049
:1029C000C500EA2C113020002A2790318226903150
:1029D000EA2C7C262000BA010800CA2ED22E41081B
:1029E0004006031DF92C42084506031DF92CB201CF
:1029F000B20AB208031D052D3F084D27903140084B
:102A0000AB27903110269031B200B208031D102D73
:102A10004208CF0040083327903110269031B20091
:102A2000B208031D1B2D4208CF00400844279031F7
:102A300010269031B200B208031D262D4508210052
:102A4000D9009C278C31B3249031282D7C269031DD
:102A5000BB01EA2C20003A08013A03199D2C033AE5
:102A60000319ED2C013A0319EE2C073A0319EF2C48
:102A7000EA2C0800002E44084306031D472D2100C0
:102A80005B0820004506031D472DB201B20AB208BB
:102A9000031D532D3F084D2790314308AB2790313C
:102AA00010269031B200B208031D5F2D42083C276A
:102AB00090314308DE27903110269031B200B208E1
:102AC000031D6A2D2100E6269031F527903110264E
:102AD0009031B200B208031D752D2100E626903119
:102AE000EF27903110269031B200B208031D802DDF
:102AF0002100E6269031E927903110269031B2006E
:102B0000B208031D8B2D2100E6269031B0279031AD
:102B100010269031B200B208031D9B2D45082100FC
:102B2000DA0094278C31B324903111302A27903168
:102B3000822690319C2D7C262000BA010800CA2EE6
:102B4000D22E44084306031DAD2D21005B08200052
:102B50004506031DAD2DB201B20AB208031DB92D01
:102B60003F084D2790314308AB2790311026903114
:102B7000B200B208031DC52D42083C27903143081E
:102B8000DE27903110269031B200B208031DD02DFF
:102B90002100E6269031F527903110269031B200C1
:102BA000B208031DDB2D2100E6269031EF2790317E
:102BB00010269031B200B208031DE62D2100E62652
:102BC0009031E927903110269031B200B208031DF0
:102BD000F12D2100E6269031B0279031102690315A
:102BE000B200B208031DFC2D45082100DA0094272D
:102BF0008C31B3249031FE2D7C269031BB019C2D6D
:102C000020003A08013A03193B2D033A03199F2D7E
:102C1000013A0319A02D073A0319A12D9C2D080094
:102C2000D600500856020318172ED4016F2E5608EE
:102C30005006031D242E51084F020318222ED401E2
:102C4000D40A6F2E0230252E0330D4006F2E560882
:102C5000520203182D2ED5017A2E52085606031D56
:102C6000382E53084F0203182B2ED501D50A7A2E81
:102C7000520856020318402E50085202031C352EEB
:102C800052085006031D2B2E5F2E52085606031DB8
:102C90002B2E53084F0203182B2E5F2E5208560678
:102CA000031D352E53084F02031C352E5F2E50088E
:102CB0005202031C352E52085006031D622E510885
:102CC0005302332E5208500203186A2E560852023D
:102CD000031C2B2E52085606031D352E312E540888
:102CE000003A0319272E013A0319452E033A031916
:102CF0004E2E572E5508080002302200B300200047
:102D00008E1508002000CF002100BB0020004F08D6
:102D10002200CB0020004F082200D70020004F08DF
:102D20002200D80020004F082200CD0020004F08CC
:102D30002200CE0020004F082200C90020004F08CA
:102D40002200CA0020004F082200D30020004F08B4
:102D50002200D40020004F082200D50020004F0898
:102D60002200D60020004F082200CC0020004F088F
:102D70002200CF0020004F082200D00020004F0882
:102D80002200D10020004F082200D2002300C501FC
:102D9000C50A080020003C30C50A45020318C501D9
:102DA000BA01080020003C30C5034502031CDA2E9E
:102DB0003B30C500BA01080020003E083C06031D58
:102DC00000343F0846060319013400345B08200034
:102DD000CF004308D0004508D10008002908210091
:102DE000AD00200028082100AC0066302000D5008E
:102DF00021002D082000D600883429082100A700D2
:102E0000200028082100A60022302000D500210043
:102E100027082000D600883429082100B1002000AE
:102E200028082100B0000C302000D5002100310816
:102E30002000D600883429082100AB002000280893
:102E40002100AA0064302000D50021002B082000BA
:102E5000D6008834BB002B08A9002A08A80003303C
:102E60002100BE000034D0004508D1003E08D20049
:102E70003F08D30041080800CF004008D0002100DF
:102E800059082000D1000800D0004508D1003C08B6
:102E9000D2003D08D30041080800CF003C08D00014
:102EA0003D08D10008003108A800E830A901CF0092
:102EB0000330D0002908D2002808D1000800613072
:102EC000D5002A08D60088346730D50021002C08A8
:102ED0002000D60088344F08A8075008A93D2E08C6
:102EE000A8070318A90ABA0108006330D5002C0806
:102EF000D60088342908AD002808AC006230D5001F
:102F00002D08D60088342908AB002808AA006030B4
:102F1000D5002B08D600883471302000D500210060
:102F20005B082000D600883473302000D5002100D3
:102F30005A082000D60088346F302000D5002100C8
:102F400059082000D60088340330BB002100340823
:102F50002000C5000034D2004508D3003E08080018
:102F60004008D200210059082000D300440808007E
:102F7000D500D6015608D0005508CF000800D5006E
:102F8000D6015608D0005508CF000800C2006D30A9
:102F9000D5004208D6008834BD006B30D5003D080E
:102FA000D60088344F08A8075008A93D2F0808000C
:102FB0004408D2004508D30041080800D200450863
:102FC000D300410808005008A9004F08A8003008A5
:102FD00008004108D2004208D300440808003C0819
:102FE000D2003D08D300440808003E08D2003F0844
:102FF000D30044080800BB0003302100BE000800D5
:10300000FF3F48302000D20086308D31FD259831B9
:103010002100C90018304902031C08004830C901CA
:103020002000D5008630D6018C31B32C22003D081B
:103030002000A30022003E082000A20022003C083D
:103040002000B30021005D082000A10021005E08DF
:103050002000A00021005C08BA0070232308210092
:10306000DD00200022082100DE00200033082100BE
:10307000DC003808380738072000D800D5002308BE
:10308000D60087308C31B3249831580AD5002208F5
:10309000D60087308C31B32498315808023ED500D1
:1030A0003308D60087308C31B32C22004C17CB1458
:1030B000FF2198312100EA08031D0800AD310A2DD7
:1030C000812825270318E5012000BA0108000030F7
:1030D00096318226983121004D08E7004E08E8001D
:1030E0004C08E6001E307E2800309631822698314A
:1030F0000E279831D5219831CF2698312000BB007A
:10310000642820003A08013A03196128053A031996
:103110006728033A0319742864280800AF28252774
:103120000318E5012000BA0108000030963182261C
:10313000983121006C08E7006D08E8006B08E60094
:103140001D30AC2800309631822698310E279831F8
:10315000D5219831CF2698312000BB00922820003D
:103160003A08013A03198F28053A03199528033ABA
:103170000319A22892280800132925270318E5011E
:103180002000BA01080045080319C0280830C5030B
:10319000C6034602031CCE280730C60026219831FC
:1031A00021003630C10A4102031CC0286430452783
:1031B0009831031CC028C201C028073045020318FB
:1031C000C0280830C50AC60A46020318C6012621CF
:1031D00098312100C10BC02835304A279831031C93
:1031E000C0286330C200C028003096318226983152
:1031F0002000C501210049082000C600AD212000A3
:1032000039082100C200200038082100C100213007
:103210002000BB00BA0108000030963182269831A8
:103220002000BB01C02820003A08013A0319BD283C
:10323000033A0319C328013A0319DD28073A031991
:10324000F428033A03190C29C02808004608460749
:103250004607D500D20083308D31FD2598312100FD
:10326000E7002000550AD20083308D31FD259831CA
:103270002100E80020005508023ED20083308D3145
:10328000FD25983140279831031D08002100A7260D
:103290009831C326983170238731302F9A292527FA
:1032A0000318E5012000BA01080045080319522956
:1032B0001830C503C6034602031C60291730C60038
:1032C000AD21983121000D30C10A4102031C522961
:1032D000643045279831031C5229C2015229173006
:1032E0004502031852291830C50AC60A46020318B7
:1032F000C601AD2198312100C10B52290C304A275B
:103300009831031C52296330C20052290030963193
:10331000822698310E279831D5219831CF269831C1
:103320002000BB00522900309631822698312000BF
:10333000BB01522920003A08013A03194F29033AE8
:1033400003195529013A03196F29073A03198629E8
:10335000033A0319932952290800460846074607ED
:10336000D500D20086308D31FD2598312100E7004F
:103370002000550AD20086308D31FD25983121007C
:10338000E80020005508023ED20086308D31FD2530
:10339000983140279831031D08002100A726983155
:1033A000C326983170238731302F2000C508031DB4
:1033B000E12921005D08E7005E08E8005C08E600FE
:1033C0000800460846074607D500D20087308D31F1
:1033D000FD2598312100E7002000550AD2008730F2
:1033E0008D31FD2598312100E80020005508023E6E
:1033F000D20087308D31FD252100E6000800312AFA
:1034000067082000A300210068082000A200210016
:1034100066082000B300022598313D2A1C27983108
:103420005A23A8319D2098312100BA00AE312226BE
:103430009831C326983128249831142598313D2A93
:103440003B2798315A23983136272100BA00AE31F4
:1034500022269831C3269831282498310B2598319B
:103460003D2A21006508003A0319002A013A031990
:103470000E2A033A0319202A3D2A872D21006A08C3
:103480002000A200A301A20A0319A30A5A2398311B
:10349000DB2798316A082000A200A3015A23983143
:1034A0009B26AE3122269831022798312824983164
:1034B0002000F6269831220063082000A300220095
:1034C00064082000A200220062082000B3009B26AE
:1034D000AE31222698310227983170239831F62692
:1034E0001C302000D50021006C082000D600883058
:1034F0008C31B32498311D30D50021006D08200097
:10350000D60088308C31B32498311E30D50021008C
:103510006B082000D60088308C31B324983121000C
:103520001730EA0A2000D50021006A082000D600E2
:1035300088308C31B324983121000830E9036902C6
:10354000031CA42A0730E90048302000D5002100E0
:1035500069082000D60083308C31B3249831A4311F
:103560003E2498313027D800D5008330D6018C31E5
:10357000B3249831580AD5008330D6018C31B32456
:1035800098315808023ED5008330D6018C31B32CD7
:103590002100873148279831A20A0319A30A5A2328
:1035A0009831DB278731482798315A2398319B2659
:1035B000AE312226983187313C2798312824983122
:1035C0002000EA269831A72698319B26AE31222684
:1035D000983187313C27983170239831EA26193089
:1035E0002000D500210036082000D60088308C311C
:1035F000B32498311A30D500210037082000D600B6
:1036000088308C31B32498311B30D5002100350827
:103610002000D60088308C31B32498312100A20AD2
:103620000319A30A15302000D5002100230820002B
:10363000D60088308C31B32498311630D500210063
:1036400022082000D60088308C31B3249831210024
:103650000830B8033802031C2F2B0730B80048305D
:103660002000D500210038082000D60087308C319A
:10367000B324983121003808380738072000D900D2
:10368000D5008730D6018C31B3249831590AD50042
:103690008730D6018C31B32498315908023ED500C9
:1036A0008730D6018C31B324983195249831CA24BF
:1036B000A431392C2100BF012000A31F642B21005D
:1036C000BF17AE31072698310F30B300A501A40112
:1036D000AE317D2698312100BF1F0800AE31072E84
:1036E000BC239831CD2398312300460B782B8C2BAB
:1036F0002200340B7D2BF523983121003A0820005D
:10370000B302152498312000B30A3308031D812B1E
:1037100021003A082000B3002000210823042100E2
:10372000BF00200023082100BA00B62398312100F1
:10373000BF1BAF2B2000A31BAF2BA11FAA2B210067
:10374000BA1FAA2B2000A236231CA72BA217A33630
:10375000A317B30A2000A501A401AE317D2E2000DD
:10376000B30AA2362318A217A336080020002008A7
:10377000A2072108A33D08002000A108031DC52BB6
:10378000A008031DC52B2100BA012000A308031DBA
:103790000800A2080319B301080021003A0820001C
:1037A00033062200AF0021003A0820003302031C38
:1037B000DD2B2200B401B40ADF2B2200B40120006B
:1037C000330821003A06031DE92B2300C601C60A6F
:1037D000EB2B2300C6012200AF1F0800340BF22B95
:1037E000B4010800B401B40A080020002108210037
:1037F000DF0020002308A10021005F082000A300B3
:1038000020082100DF0020002208A00021005F081E
:103810002000A20021003A08DF0020003308210028
:10382000BA005F082000B30008002200B4012000A5
:10383000A31F1D2C2200B401B40A2000A2362318B5
:10384000A217A3362200340B08002000A31708009B
:10385000A531982598318A249831A501A40120002A
:103860002708D1000130D1052736A700D10CD1019E
:10387000D10C2608D0000130D005A6365108A60488
:1038800050080319452CB62398312508152798317F
:10389000A4365108A4042208152798312536A5001E
:1038A0005104A500230815279831A2365108A20417
:1038B0002336A3002100DF0B2F2C3A082000B3078A
:1038C0002308031D732C2208031D6D2C2508A3005B
:1038D0002408DC269831F130722C2208A300250838
:1038E000DC26F930B307AE317D2698312100BF1FA9
:1038F0000800FF302000A406A40A0319A503A506AA
:1039000025080319A203FF30A206A2080319A30386
:10391000A30608000F302100DF0020002308A700C5
:103920002208A600A201A30108002100A7269831C1
:10393000220063082000A100220064082000A000EB
:10394000220062082100BA00702398312308220067
:10395000E300200022082200E400200033082200B7
:10396000E2003027D800D5002308D60083308C3100
:10397000B3249831580AD5002208D60083308C3100
:10398000B32498315808023ED5003308D60083305E
:103990008C31B32C2100A72698312200600820002A
:1039A000A100220061082000A00022005F08210081
:1039B000BA00702323082200E00020002208220021
:1039C000E100200033082200DF00210049084907F8
:1039D00049072000D800D5002308D60086308C3156
:1039E000B3249831580AD5002208D60086308C318D
:1039F000B32498315808023ED5003308D6008630EB
:103A00008C31B32C2100F0303B14AD313125CE1276
:103A1000CE054E1408002100F0303B10AD313125A9
:103A2000CE16CE054E10080021003B1034081E258E
:103A30002200F930CE12CE054E1008002000CF0033
:103A4000F0302200CA050F30C905382D2200C917F1
:103A500008002200491708002200C91608002200A9
:103A6000491608002200CA15080022004A1408005E
:103A700020004F0884000630040203180800833138
:103A80000435883E820008007A2D50082000A300EB
:103A9000210051082000A20021004F082000B3009F
:103AA000862D1C2798315A23A8319D20983121005A
:103AB000BA00AE3122269831210050082000A10022
:103AC000210051082000A00021004F08BA0028243E
:103AD000983160302000A1000530A0012100BA001B
:103AE00028249831862D3B2798315A239831362740
:103AF0009831572D21006508003A0319452D013AE8
:103B00000319512D033A0319732D862D872D3F2656
:103B100098312100BB103B11BB11EC2D2000B101ED
:103B2000B001AF01AE012100BB14F72DB3269831CF
:103B30000F39AE000F30AE05B108031DF72D103060
:103B4000B100B008031DF72D1030B000AF08031D01
:103B5000F72D1030AF00F72DB32698312A27983172
:103B6000BB152000B108031DF72D1030B100B008BF
:103B7000031DF72D1030B000F72DB32698312A27FA
:103B800098313B152000B108031DF72D1030B1000E
:103B9000F72DB3269831E42D2000B1012508B0009F
:103BA0000F30B005240E0F39AF000F30AF052408D9
:103BB000AE000F30AE05932D2000B101B0012508F5
:103BC000AF000F30AF05240E0F39D82D2000B10102
:103BD000B001AF012508D82D22003008840008303C
:103BE000040203188E2D83310435783E82002000B4
:103BF0003108D83E82310A008731F8279831823166
:103C00000A002200D40020002F08D83E82310A008A
:103C10002200D50020002E08D83E82310A009E31B5
:103C20002200D6002100650B0800322E2100BB10B7
:103C30003B15BB112200D30120003108D83E823150
:103C40000A002200D40020003008D83E82310A0049
:103C50002200D50020002F08D83E82310A00220021
:103C6000D600080022003008013A03193E2E033A1C
:103C700003193E2E013A03193E2E162E080022008B
:103C8000B001AF012000A101A53198259831503035
:103C9000A001A10004302100BA002000B31F552E5E
:103CA000282498312200B00A4D2E0C302000330217
:103CB00003185F2E282498312200B00A552E1030A8
:103CC00020003302031C6A2EAE31222698312200D6
:103CD000AF0A5F2EAE3110269831A531AB25983151
:103CE00020002508031D080004302200E600200003
:103CF0002408D5008030D5052535A500D50DD50182
:103D0000D50D5504A5002708D5008030D505A4356C
:103D1000D50DD501D50D5508A4042735A7002200DF
:103D2000E6036608031D772EAF080319992EAF032B
:103D30000800B00A080021002F082000A10021007F
:103D40002E082000A00021006408BA0008005D08C9
:103D50002000A30021005E082000A20021005C08D2
:103D60002000B300080020002508B1000F30B10585
:103D7000240E0F39B0000F30B0052408AF000F300B
:103D8000AF05270E0800210067082000A1002100D0
:103D900068082000A00021006608BA000800200082
:103DA00039082100C200200038082100C10020008D
:103DB00035082200BA001F34A2002308D1000130C8
:103DC000D1052336A300D10CD101D10CA236510864
:103DD000A204080023082100B600200022082100C8
:103DE000B700200033082100B50008002308210097
:103DF000EC00200022082100ED0020003308210003
:103E0000EB00080021006C082000A10021006D08D3
:103E10002000A00021006B08BA0008002000C501A6
:103E2000210038082000C6000800D1000130D1056B
:103E3000D10CD101D10C0800220021082000A300E0
:103E4000220020082000A200080021000330E50A1B
:103E5000650208000F39AE000F30AE0521000800E2
:103E60002100690869076907200008002000643004
:103E7000A001A100073433082000A200A30108001C
:103E80002100E6002000C5080800C101C10AC20ADD
:103E900042020800C1006430C203420208004A081E
:103EA0002000A200A301A20A0319A30A5A239831F1
:103EB000DB2798314A082000A200A3015A23983139
:103EC0009B26AE3122269831F42798312824983148
:103ED0002000E8279831220060082000A30022007B
:103EE00061082000A20022005F082000B3009B268A
:103EF000AE3122269831F427983170239831E82783
:103F00001F302000D50021004D082000D600883049
:103F10008C31B32498312030D50021004E08200088
:103F2000D60088308C31B32498312130D50021005F
:103F30004C082000D60088308C31B3249831210001
:103F40001830CA0A2000D50021004A082000D600F7
:103F500088308C31B324983121001830C9034902CC
:103F6000031CB42F1730C90048302000D5002100B1
:103F700049082000D60086308C31B3249831A43112
:103F80004324983121004908490749072000D800F7
:103F9000D5008630D6018C31B3249831580AD5002B
:103FA0008630D6018C31B3245808023ED5008630C5
:103FB000D6018C31B32C200023082100AF00200053
:103FC00022082100AE00200033082100E400080090
:103FD00023082100CD00200022082100CE0020006F
:103FE00033082100CC00080021004D082000A1006A
:103FF00021004E082000A00021004C08BA00080053
:1040000045302300A6004C30A7003C08A8003D081E
:10401000A90006302200EF000E20080023001D1228
:104020009E16210011160800F2010830F100F10877
:1040300003193C28F2353E20A0312000B401452070
:10404000A031233034020318272872142828721054
:10405000F020A0313E20A0310D180D1C3A280D187B
:104060000D1C3A280D180D1C3A280D180D1C3A2865
:104070000D1C3A28F103172872080800F0010930D6
:10408000F00A7002031808003F280D1C4928B40AE2
:104090004A28B4030D184E28B4034F28B40A0D1C47
:1040A0005328B40A5428B4030D185828B4035928C7
:1040B000B40A0D1C5D28B40A5E28B4030D186228EA
:1040C000B4036328B40A0D1C6728B40A6828B40333
:1040D0000D186C28B4036D28B40A0D1C7128B40A9D
:1040E0007228B4030D187628B4037728B40A0D1C7F
:1040F0007B28B40A7C28B4030D188028B4038128D7
:10410000B40A0D1C8528B40A8628B4030D188A2821
:10411000B4038B28B40A0D1C8F28B40A9028B4036A
:104120000D189428B4039528B40A0D1C9928B40AD4
:104130009A28B4030D189E28B4039F28B40A0D1CB6
:10414000A328B40AA428B4030D18A828B403A928E6
:10415000B40A0D1CAD28B40AAE28B4030D18B22859
:10416000B403B328B40A0D1CB728B40AB828B403A2
:104170000D18BC28B403BD28B40A0D1CC128B40A0C
:10418000C228B4030D18C628B403C728B40A0D1CEE
:10419000CB28B40ACC28B4030D18D028B403D128F6
:1041A000B40A0D1CD528B40AD628B4030D18DA2891
:1041B000B403DB28B40A0D1CDF28B40AE028B403DA
:1041C0000D18E428B403E528B40A0D1CE928B40A44
:1041D000EA28B4030D18EE28B4030800B40A080056
:1041E000F0010B30F00A700203180800F1280630C5
:1041F0002000D20088308D31FD25A0312100B4008F
:1042000006303402031C0800EC290A302000D200DA
:1042100088308D31FD25A0312100A1000B30200018
:10422000D20088308D31FD25A0312100A000013061
:104230002102413003192002031C0800FE2922300C
:104240002000D20088308D31FD25A0312100A7004B
:1042500023302000D20088308D31FD25A03121008F
:10426000A60001302702F43003192602031C3F295F
:1042700027302702113003192602031C0800D92910
:104280000C302000D20088308D31FD25A031210076
:10429000B1000D302000D20088308D31FD25A031D5
:1042A0002100B000003031025A3003193002031CE3
:1042B000602902303102593003193002031C080012
:1042C000C7298830D201D20A8D31FD25A031D8000E
:1042D0008830D2018D31FD25A031D9005808AA3A85
:1042E000031D76295908553A03190800DA016400BC
:1042F00020005A088C31EB24A0318930DA0A5A02A6
:10430000031C7729AA30D501D50AD60088308C3114
:10431000B324A0315530D501D60088308C31B32478
:10432000A031C721A031D921A031EC21A031F82141
:10433000A0311622A031FE21A0312B22A0311F2254
:104340001030D5001330D60088308C31B324A03122
:1043500011308F318127A0318C31B324A03112303C
:104360008F318127A0318C31B324A0311330D50097
:104370008830D6018C31B324A0311430D500883078
:10438000D6018C31B3242100B901B90A0800F030FC
:104390002100B0000C30B1012000D500210031080F
:1043A0002000D60088308C31B324A0313D228C31DE
:1043B000B32CF4302100A6000130A70022302000E9
:1043C000D500210027082000D60088308C31B32486
:1043D000A03136228C31B32C21000630B4012000EC
:1043E000D500210034082000D60088308C31B32C51
:1043F00064302100B30079228C31B32C14302100B9
:10440000A0000B30A1012000D500210020082000D1
:10441000D60088308C31B324A0310A30D500210079
:1044200021082000D60088308C31B32C21000930BF
:10443000B2012000D5008830D6018C31B32C210088
:104440000E30E3012000D500210063082000D600D3
:1044500088308C31B32C82308F315F27A0318C3182
:10446000B324A03197315F278C31B32C2330D50092
:10447000210026082000D60088340D30D500210008
:1044800030082000D6008834692A45082100B3008E
:1044900079228C31B324A031003096318226163037
:1044A0002000BB00210021082000A90021002008D5
:1044B0002000A800BA010800C50A5A2AC5035A2AD2
:1044C00045082100B30079228C31B324A031BB010F
:1044D0005A2A20003A08013A0319452A033A0319D7
:1044E0005C2A013A03195E2A073A0319602A5A2AFC
:1044F000080005302000D500210033082000D60038
:1045000088342200A201A3012000BB012100EE019A
:1045100089306E020318952A640021006E088C31E0
:10452000EB24A2312100EE0A882A2000AA30D5010E
:10453000D50AD60088308C31B324A2315530D5014C
:10454000D60088308C31B324A2311030D500210040
:1045500058082000D60088308C31B324A2311130A5
:10456000D500210057082000D60088308C31B324B4
:10457000A2311230D500210054082000D600883026
:104580008C31B324A2311330D5002100550820000E
:10459000D60088308C31B324A2311430D5002100EC
:1045A00056082000D60088308C31B324A231A831BF
:1045B0008020A231A131C721A231A131D921A2315C
:1045C000A131F821A231A2311622A231A131FE215E
:1045D000A231A131EC21A231A2312B22A231A23190
:1045E0001F22A231BF315927A231BF316E27A2311C
:1045F00098310120A231B1310B21A231BF31B32753
:10460000A2312E24A2313424A2313924A2313E24F5
:10461000A2314324A2314824A2311727A231AD2769
:10462000A231B627A231BF27A231DA27B0312E201E
:10463000A2313C30863144262300CE01C901C90A8B
:1046400008002200480803190800C8010D2C520870
:104650002000A800A901210024082000A8072100AB
:1046600025082000A93D21005308F13A0130031D1F
:104670003B2B2000A90720002902A430031928029F
:10468000031C462B5C30A807FE30A93D2A30CF0022
:10469000D0012908D2002808D1007924A23150087D
:1046A0002300BF0020004F082300BE007930BE0762
:1046B0000318BF0A3E082000C6002A30CF00D001F0
:1046C0002908D2002808D1009E24A23150082300D6
:1046D000BF0020004F082300BE0006302000CF009E
:1046E000D00123003F082000D20023003E08200014
:1046F000D1006424A23150082300BF0020004F08DD
:104700002300BE002000C5000430C7000A30470265
:104710000318992B4708A03E860001308700450802
:10472000D20046088D31FD25A2318100C50AC70A95
:10473000862B2200EF015E24D30108002000C70170
:104740000A30C70A47020318B82B4708A03E860064
:104750000130870022006A082000D20022006B0886
:104760008D31FD25A23181002200EA0A2000A02B14
:104770002200EF01EF0A5E2C3808402787308D3188
:10478000FD25A2312300A700512787308D31FD255B
:10479000A2312300A800512787308D31FD25A23199
:1047A0002300A90003302200EF002100D301BB2B1E
:1047B0006908402783308D31FD25A2312300A700F1
:1047C000512783308D31FD25A2312300A8005127C8
:1047D000A2318330CD2B490852072000C700183082
:1047E0004702031CF52BE830C70747084707470770
:1047F0002100EF002000D20086308D31FD25A2314E
:104800002300A700512786308D31FD25A2312300DA
:10481000A8005127A2318630CD2B21005308033A3E
:1048200003199E2B063A0319BC2B033A0319D82B04
:10483000013A0319EB2BF73A0319272B013A031915
:10484000272B2D2C20003B08840025300402031860
:10485000080083310435003E820008002200BD01BB
:10486000BE01BC01BB0108002200DD01DE01DC014C
:1048700008002100DD01DE01DC0108002200E30167
:10488000E401E20108002200E001E101DF0108008B
:104890002200DA01DB01D9010800C0302200CB0080
:1048A00021003C0B5B2C20004508D93E82310A00D8
:1048B0002200D70008002200D701080023001D12A3
:1048C0009E16210011160800D301D4014F1C6C2C38
:1048D0005108D3075208D43DD135D20DD036CF0C74
:1048E00050084F04031D662C5408D0005308CF0015
:1048F0000800D301D40150084F040319992CD501A5
:10490000D50AD01B862CCF35D00D802CD335D40DB5
:1049100050085202031D8E2C4F085102031C952C87
:104920004F08D1025008D23B5314D036CF0CD50BD0
:10493000862C5408D0005308CF00080050084F04BC
:104940000319B92CD301D30AD01BA92CCF35D00D14
:10495000A32C50085202031DAF2C4F085102031C18
:10496000B52C4F08D1025008D23BD036CF0CD30B18
:10497000A92C5208D0005108CF00080021003C0BA0
:10498000C52C200045089D311E2DF0302200CA059F
:104990000F30C905080021003C030319D12C440B3A
:1049A0001B2D20002908A3002808A200AB25A23156
:1049B000200025082200A9000F30A9052000240EA0
:1049C0000F39B1002408B0000F30B005270E0F39A1
:1049D000AF002708AE000F30AE052200A908031D66
:1049E000FA2C21003B122000B108031DFC2C1030D2
:1049F000B100FC2C21003B1620003108D83E82314A
:104A00000A002200CF0020003008D83E82310A0080
:104A10002200D00020002F08D83E82310A00220058
:104A2000D10020002E08D83E82310A00A531220094
:104A3000D200A5311F2DA731A72721003B1222004C
:104A4000CC1408002200CE164E144E1521003B1443
:104A50003C0303192E2D440803194A2D2000450854
:104A6000D600D70160253008D83E82310A002200E6
:104A7000D40020002F08D83E82310A002200D50041
:104A800020002E08D83E82310A002200D6002100E4
:104A90003B15080022007E2F21003C030319522DF4
:104AA000440B542DB231A42ABF31412FD930823169
:104AB0000A002200D7008731562F1126A9314C2930
:104AC000E830CF000330D0005708D2005608D1009C
:104AD0007924A2314F08B100E830CF000330D00074
:104AE0005708D2005608D1009E24A2315008D900A0
:104AF0004F08D80064309927A2317924A2314F0899
:104B0000B00064308427A2319E24A2315008D9001D
:104B10004F08D8000A309927A2317924A2314F08D2
:104B2000AF000A308427A2319E244F08AE0008004F
:104B30002000210823062100BF002000A31FA72D6D
:104B4000FF30A206A20A0319A303FF30A306A11F88
:104B50000800AE31B62E2100BF012000A31FB52DE5
:104B60002100BF17AE310726A23110302300C2004A
:104B70002000A401A501A7012408CF008030CF05A3
:104B80002535A500CF0DCF01CF0D4F04A500270877
:104B9000CF008030CF05A435CF0DCF01CF0D4F080A
:104BA000A4042308CF008030CF052735A700CF0D00
:104BB000CF01CF0D4F04A7002208CF008030CF05D2
:104BC0002335A300CF0DCF01CF0D4F04A300A23595
:104BD0002300C20303190800200027082100E00079
:104BE0000626A23160082000A70024082100E0006A
:104BF0000626A23160082000A40025082100E0005C
:104C00000626A23160082000A500BC2D6008033EE6
:104C1000DF00DF19E0006008303EDF00DF1BE0004E
:104C20000800200046082726D800580E0F39D83E25
:104C300082310A002200CF00200058080F39D83EE8
:104C400082310A002200D00021003B17080020001A
:104C5000D7000A30CF0057083926D6000A30CF00D7
:104C60005708BF319B27D500560EF0395504D400A4
:104C70000800D000D2014F0803194F2ED101D10AEC
:104C8000CF1B442ECF353F2ED2354F085002031C88
:104C90004C2E4F08D0025214CF36D10B442E52085E
:104CA00008002200491421003B1420002908D700E5
:104CB0002808D600D736D60CD736D60C6025A231B8
:104CC00021003C030319672E44080319CE2E20004F
:104CD000AF08031D6E2E2200D301742E2F08D83E7C
:104CE00082310A002200D30020002E08D83E8231F3
:104CF0000A00A6312200D400A631AB2ED830823172
:104D00000A002200D500D83082310A00A631A6312F
:104D1000A82EDA3082310A002200D500DD3082313F
:104D20000A00A631A631872EDD3082310A0022002A
:104D3000D500D83082310A00A631A631872EDF3067
:104D400082310A002200D500DD3082310A00A6310E
:104D5000D600A631CB2E033020002805DA00DB0177
:104D60005B08003AA7310319FB2FA231A631A92E07
:104D70005A08003A0319FC2FA231013A0319FD2FFA
:104D8000A231033A0319FE2FA231013A0319FF2F72
:104D9000A231A631A92E21003B1508002200D30123
:104DA0007E2F21003C030319D82E44080319F92E45
:104DB000DA3082310A002200CF00D83082310A0076
:104DC000A631D00020004508A6312726D800580E6D
:104DD0000F39D83E82310A002200D1002000580845
:104DE0000F39D83E82310A00A6312200D200A63106
:104DF000FB2EA731A72721003B132200CC12CB109A
:104E00004B110800DA3082310A002200D700A531A8
:104E10005B2DDB3082310A002200D700A5315B2DEB
:104E2000DC3082310A002200D700A5315B2D15301D
:104E30002000D20088308D31FD25A2312100A30051
:104E400016302000D20088308D31FD252100A200CF
:104E500008001126A2315E2D50082200DA00210040
:104E600051082200DB0021004F082200D900200059
:104E70005D08D500210050082000D6005C0808001D
:104E800052072000C70008304702031C492FF830A2
:104E9000C7074708470747072100EF002000D20057
:104EA00008002100EF0A6F082000D20008005D080A
:104EB000023ED50021004F082000D6005C08080003
:104EC0005D0AD500210051082000D6005C080800CA
:104ED000003CD200031CD3035308803A803C0800F6
:104EE0005D08043ED5003608D6005C0808005D0861
:104EF000053ED5003708D6005C080800D401D5016E
:104F0000D60121003B110800CF00D0015908D20082
:104F10005808D10008005D08033ED500AA30D6002D
:104F20005C080800D4000130D405D40CD401D40CA2
:104F30000800CF00D0015908D2005808D10008005D
:104F4000CF00031CD0035008803A803C08002200A8
:104F5000CF01D001D101D201080017302000D200CA
:104F600088308D31FD252100EA000800183020002E
:104F7000D20088308D31FD252100CA00080019308B
:104F80002000D20088308D31FD25A2312100B600ED
:104F90001A302000D20088308D31FD25A231210049
:104FA000B7001B302000D20088308D31FD25210054
:104FB000B50008001C302000D20088308D31FD255E
:104FC000A2312100EC001D302000D20088308D314C
:104FD000FD25A2312100ED001E302000D2008830D6
:104FE0008D31FD252100EB0008009931FF212200C1
:104FF0004C174C160800B82E7E2E892E942E9F2E0C
:105000006908690769072000D500D20083308D3117
:10501000FD25A8312200E3002000550AD20083308C
:105020008D31FD25A8312200E40020005508023E04
:10503000D20083308D31FD252200E20008003908BE
:105040002000A300220038082000A2002200370818
:105050002000B300AD31EB25A83101302000230240
:105060008730031922020318080023002D1F3B2854
:10507000D101D10A3C28D1012100390B512823004C
:10508000AD1F51282100B90123002A082200E800A1
:1050900023002B082100E10023002C082100E2005E
:1050A0008020210031082000A300210030082000CA
:1050B000A2009B315A23A83123002E082000A10012
:1050C00023002F082000A000230030082100BA0090
:1050D0009C312824A8319D202100BA00AE3122261F
:1050E00023082100D000200022082100D100200048
:1050F00033082100CF002200A20A0319A30A0800E6
:1051000004302000D500220068082000D600883036
:105110008C31B324A8310330D50021006108200070
:10512000D60088308C31B3240230D50021006208CB
:105130002000D60088308C31B32C20007D30A001B7
:10514000A1000A342100480B08002200450B08008A
:10515000C10A0B1EC4284308043E2000CC000030C6
:1051600003180130CD00803ACE0080304E02031D7E
:10517000BD282200410820004C0203180800CA2064
:10518000A831DC208B1208004108430203180800F4
:10519000D020080020008D102200C5010B1208004D
:1051A00020003B08223A031908002200C501C50A65
:1051B00020008D140B16080024082000C8002200CF
:1051C00025082000C9007D30CA01CB01F000F101A3
:1051D000F201F3014B08F7004A08F6004908F50010
:1051E0004808F4000721A8317308CB007208CA00F0
:1051F0007108C9007008C8000F30CB36CA0CC90C42
:10520000C80C890BFD2848082200C3000800F801DB
:10521000F901FA01FB01701C15297408F8077508DB
:10522000F93D7608FA3D7708FB3DF435F50DF60DAE
:10523000F70DF336F20CF10CF00C730872047104E4
:105240007004031D0B297B08F3007A08F20079082B
:10525000F1007808F0000800A6311126A9314C2988
:10526000A6311126A9314C29A6311126A9314C2984
:10527000A6311126A9314C2942212200CC16CB108F
:105280004B110800A6311126A9314C2957212200C3
:105290004B15CB10CC1208003C03031952294408CB
:1052A000031953298D292200D101D2010800A5211B
:1052B000A9318D29A521A9318D21A931B629A52191
:1052C000A9318D21A931B629A521A9318D21A93175
:1052D000B629A521A9318D21C0302200CB00DB30B9
:1052E00082310A00A931D700B229A521A9318D2127
:1052F000C0302200CB00DA3082310A00A931D70059
:10530000B229A521A9318D21C0302200CB00D9308E
:1053100082310A00A931D700B22920004508A63100
:105320002726A931D800580E0F39D83E82310A00FD
:105330002200D100200058080F39D83E82310A00DF
:105340002200D20021003B17080021003C03031972
:10535000AC2944080319AE29A631112E2200CF0131
:10536000D00108002100BB16BB130800BB12BB17FD
:10537000080021006308003A0319C829013A0319FB
:10538000C929033A0319D229013A0319E329052A45
:105390004B2A7A22A9310622A931D300530BD129F5
:1053A000C829562A7A22A9310622A931D300530BE3
:1053B000DA29C8298322A9310622A931D300530B47
:1053C000E229D129622A7A22A9310622A931D30001
:1053D000530BEB29C8298322A9310622A931D30016
:1053E000530BF329D12921005B082000CF0043088B
:1053F000D00021005A082000D10044080622A9311B
:10540000D300530B042AE2296E2A0800D200500868
:10541000520252080318212A3602031C00343608AF
:105420005206031D182A4F083702031C00340134AA
:1054300050083602031C013436085006031D0034A0
:105440003D2A5006031D352A36085206031D003436
:1054500051084F024F080318312A3702031C003449
:105460003D2A3702031801343D2A50083602031C36
:10547000013436085006031D422A51083702031C26
:105480000134003452083602031C00343608520638
:10549000031D0134132A2200E90120002B082200F9
:1054A000A10020002A082200A00008002200E90133
:1054B000E90A20002D082200A10020002C0822006B
:1054C000A000080002302200E90021002B08220081
:1054D000A10021002A082200A000080003302200B9
:1054E000E90021002D082200A10021002C08220043
:1054F000A000080020003F08CF003C08D0003D0875
:10550000D1003E0808004208CF004008D00021002A
:1055100059082000D1004108080020003908210066
:10552000C200200038082100C100200035084502D3
:1055300003189F2A450835022200BA0008002100FE
:10554000C10BAB2A6430C2034202031CA92A633098
:10555000C2000C30C10041082000D5001430D60034
:10556000210042085B232000450821004B02200057
:1055700035072200BA0008002000D501D50AD6015F
:10558000D60A39085B23AA31D622AA31350822006F
:105590003107FF3E2000E000A2070318A30A0730EE
:1055A000A000A101DB23A20A22080800200039087C
:1055B0000339031DDD2ACF01032BFF30CF00032B5E
:1055C000A201A30108001F30A200A30108003B3084
:1055D000A200A301CF080319A20A08005A30E82A42
:1055E0007830E82A9730E82AB530E82AD430E82A1B
:1055F000F330E82A0B30FF2A3030FF2A4E30A20069
:105600000130A300EA2A3808FF3E031CFE2A84006A
:105610000B3004020318FE2A83310435623E8200F7
:1056200008004B2B4608B500A6312726AA312100D9
:10563000D40029258C31B3241A30BB002000BA01D4
:1056400008008F317B27AA315B23AA312000C60ACC
:10565000460821004B0203181E2B2000C601C60A73
:105660001E2B8F317B27AA315B23AA312000C60B6A
:105670001E2B21004B082000C6001E2B4608B5003B
:10568000A6312726AA312100D40029258C31B32444
:10569000AA31BB011E2B20003A08013A0319122B34
:1056A000033A0319212B013A0319312B073A031945
:1056B0003E2B1E2B08002000DF005508EE3E8231F5
:1056C0000A00AB31DE005E08D7000530D736890B03
:1056D000662B5708DD001F30DE05033055025F08DA
:1056E00003187C2B033903197B2B5508023A031D41
:1056F0007A2BDE03DD0A5F08D700D736D736570886
:105700005F07DF000730CF00D0015608D700D8016F
:105710005D085F07D900DA01DA0D57085907DB0089
:1057200058085A3DDC005B08023ED10000305C3D69
:10573000D200A2234F082200B10020005E08210001
:10574000CB000800D401D21FAC2BD109D209D10A59
:105750000319D20AD401D40AD01FB32BCF09D00920
:10576000CF0A0319D00A50084F040319CE2BD301D6
:10577000D30AD01BBE2BCF35D00DB82B5008520208
:10578000031DC42B4F085102031CCA2B4F08D10222
:105790005008D23BD036CF0CD30BBE2B5408031984
:1057A000D62BD109D209D10A0319D20A5208D00046
:1057B0005108CF000800210823062100BF00200067
:1057C0002108D0002008CF002308D2002208D100F1
:1057D000A4319E24AA315008A5004F08A400210836
:1057E000D0002008CF002308D2002208D100A43125
:1057F00079245008A3004F08A200080022004C178B
:10580000CC169931FF21AA312100CA08031D0800D6
:105810000A2D20003808CF003908D624AA31D80034
:105820003508580203181F2C5808B500A631272642
:10583000AA312100D40029258C31B324AA312200B9
:10584000F030CB01D701D8014E10C9058F30CC05FF
:105850005F30CC172100BB05550E0F39D83E823181
:105860000A002200CF00210055080F39D83E8231AE
:105870000A002200D0002100560E0F39D83E823196
:105880000A002200D100210056080F39D83E82318B
:105890000A00AC312200D20021003C08AC310319CF
:1058A000552CAA313B17AC31562C3B134808031931
:1058B000602CF0302200CD049D314425AA319E2C6D
:1058C0000F302200CD05210047080319802C712CD0
:1058D0004D16802C30306F2C70306F2CF030CD0492
:1058E000802C22002708013A0319682C033A031977
:1058F0006A2C013A03196C2C073A03196E2C802C80
:105900002100470B862CB908031D892C0A25AA31D2
:105910009E2C3D08031D862C2200F130D301D401BA
:10592000D501D6012100BB059E2CF824AA31AA2C52
:105930001F25AA31AA2CFF24AA31AA2C2100650810
:10594000003A0319952C013A0319982C033A0319CC
:105950009B2CAA2C2100B208031DB12C2200CD10D3
:10596000B32C2200CD1436080319B82CCC15B92C51
:10597000CC11210048080319C12C23005108031938
:10598000C42C22004D10CA2C21003D080319C12C43
:1059900022004D1423004D0BD02C22004D11080085
:1059A00021003D0BCD2C22004D150800D000E92C24
:1059B0001F30E72CD008031DDF2C1D30E72C0330EF
:1059C000D005D0080319DD2C1C30E72C1E30D10087
:1059D000F62C4F08FF3E031CF62C84000C3004020A
:1059E0000318F62C833104354A3E82005108080022
:1059F0002100F0303B143125CE12CE0508002100E5
:105A0000F0303B102200CA050F30C9050630CE1613
:105A1000CE040800E93082310A002200D300E930C8
:105A200082310A00D400E93082310A00D500E93021
:105A300082310A00D600F1302100BB0508002100A8
:105A40003B1034089D311E2522000630CE12CE04B4
:105A5000080012302000D500210054082000D60094
:105A600088342200CA050F30C905F9342A302000D5
:105A7000CF00D001210025082000D20021002408F9
:105A80002000D100A4317924AD315008DB004F084B
:105A9000DA00DC007930DC072A30CF00D0012100A9
:105AA00025082000D200210024082000D100A431C4
:105AB0009E24AD315008DB004F08DA00DD00CF0036
:105AC0000630DF25AD31DD00210050082000A300A5
:105AD000210051082000A20021004F082000B3003F
